{
    "_format": "hh-sol-artifact-1",
    "contractName": "NFTMarketplace",
    "sourceName": "contracts/NFTMarketplace.sol",
    "abi": [
        {
            "inputs": [],
            "stateMutability": "nonpayable",
            "type": "constructor"
        },
        {
            "anonymous": false,
            "inputs": [
                {
                    "indexed": true,
                    "internalType": "address",
                    "name": "owner",
                    "type": "address"
                },
                {
                    "indexed": true,
                    "internalType": "address",
                    "name": "approved",
                    "type": "address"
                },
                {
                    "indexed": true,
                    "internalType": "uint256",
                    "name": "tokenId",
                    "type": "uint256"
                }
            ],
            "name": "Approval",
            "type": "event"
        },
        {
            "anonymous": false,
            "inputs": [
                {
                    "indexed": true,
                    "internalType": "address",
                    "name": "owner",
                    "type": "address"
                },
                {
                    "indexed": true,
                    "internalType": "address",
                    "name": "operator",
                    "type": "address"
                },
                {
                    "indexed": false,
                    "internalType": "bool",
                    "name": "approved",
                    "type": "bool"
                }
            ],
            "name": "ApprovalForAll",
            "type": "event"
        },
        {
            "anonymous": false,
            "inputs": [
                {
                    "indexed": true,
                    "internalType": "uint256",
                    "name": "tokenId",
                    "type": "uint256"
                },
                {
                    "indexed": false,
                    "internalType": "address",
                    "name": "seller",
                    "type": "address"
                },
                {
                    "indexed": false,
                    "internalType": "address",
                    "name": "owner",
                    "type": "address"
                },
                {
                    "indexed": false,
                    "internalType": "uint256",
                    "name": "price",
                    "type": "uint256"
                },
                {
                    "indexed": false,
                    "internalType": "bool",
                    "name": "sold",
                    "type": "bool"
                }
            ],
            "name": "MarketItemCreated",
            "type": "event"
        },
        {
            "anonymous": false,
            "inputs": [
                {
                    "indexed": true,
                    "internalType": "uint256",
                    "name": "tokenId",
                    "type": "uint256"
                },
                {
                    "indexed": false,
                    "internalType": "address",
                    "name": "liker",
                    "type": "address"
                },
                {
                    "indexed": false,
                    "internalType": "uint256",
                    "name": "totalLikes",
                    "type": "uint256"
                }
            ],
            "name": "NFTLiked",
            "type": "event"
        },
        {
            "anonymous": false,
            "inputs": [
                {
                    "indexed": true,
                    "internalType": "address",
                    "name": "from",
                    "type": "address"
                },
                {
                    "indexed": true,
                    "internalType": "address",
                    "name": "to",
                    "type": "address"
                },
                {
                    "indexed": true,
                    "internalType": "uint256",
                    "name": "tokenId",
                    "type": "uint256"
                }
            ],
            "name": "Transfer",
            "type": "event"
        },
        {
            "inputs": [
                {
                    "internalType": "address",
                    "name": "to",
                    "type": "address"
                },
                {
                    "internalType": "uint256",
                    "name": "tokenId",
                    "type": "uint256"
                }
            ],
            "name": "approve",
            "outputs": [],
            "stateMutability": "nonpayable",
            "type": "function"
        },
        {
            "inputs": [
                {
                    "internalType": "address",
                    "name": "owner",
                    "type": "address"
                }
            ],
            "name": "balanceOf",
            "outputs": [
                {
                    "internalType": "uint256",
                    "name": "",
                    "type": "uint256"
                }
            ],
            "stateMutability": "view",
            "type": "function"
        },
        {
            "inputs": [
                {
                    "internalType": "uint256",
                    "name": "tokenId",
                    "type": "uint256"
                }
            ],
            "name": "createMarketSale",
            "outputs": [],
            "stateMutability": "payable",
            "type": "function"
        },
        {
            "inputs": [],
            "name": "fetchMarketItems",
            "outputs": [
                {
                    "components": [
                        {
                            "internalType": "uint256",
                            "name": "tokenId",
                            "type": "uint256"
                        },
                        {
                            "internalType": "address payable",
                            "name": "seller",
                            "type": "address"
                        },
                        {
                            "internalType": "address payable",
                            "name": "owner",
                            "type": "address"
                        },
                        {
                            "internalType": "uint256",
                            "name": "price",
                            "type": "uint256"
                        },
                        {
                            "internalType": "bool",
                            "name": "sold",
                            "type": "bool"
                        },
                        {
                            "internalType": "uint256",
                            "name": "likes",
                            "type": "uint256"
                        }
                    ],
                    "internalType": "struct NFTMarketplace.MarketItem[]",
                    "name": "",
                    "type": "tuple[]"
                }
            ],
            "stateMutability": "view",
            "type": "function"
        },
        {
            "inputs": [],
            "name": "fetchMyNFTs",
            "outputs": [
                {
                    "components": [
                        {
                            "internalType": "uint256",
                            "name": "tokenId",
                            "type": "uint256"
                        },
                        {
                            "internalType": "address payable",
                            "name": "seller",
                            "type": "address"
                        },
                        {
                            "internalType": "address payable",
                            "name": "owner",
                            "type": "address"
                        },
                        {
                            "internalType": "uint256",
                            "name": "price",
                            "type": "uint256"
                        },
                        {
                            "internalType": "bool",
                            "name": "sold",
                            "type": "bool"
                        },
                        {
                            "internalType": "uint256",
                            "name": "likes",
                            "type": "uint256"
                        }
                    ],
                    "internalType": "struct NFTMarketplace.MarketItem[]",
                    "name": "",
                    "type": "tuple[]"
                }
            ],
            "stateMutability": "view",
            "type": "function"
        },
        {
            "inputs": [
                {
                    "internalType": "uint256",
                    "name": "tokenId",
                    "type": "uint256"
                }
            ],
            "name": "getApproved",
            "outputs": [
                {
                    "internalType": "address",
                    "name": "",
                    "type": "address"
                }
            ],
            "stateMutability": "view",
            "type": "function"
        },
        {
            "inputs": [
                {
                    "internalType": "address",
                    "name": "owner",
                    "type": "address"
                },
                {
                    "internalType": "address",
                    "name": "operator",
                    "type": "address"
                }
            ],
            "name": "isApprovedForAll",
            "outputs": [
                {
                    "internalType": "bool",
                    "name": "",
                    "type": "bool"
                }
            ],
            "stateMutability": "view",
            "type": "function"
        },
        {
            "inputs": [
                {
                    "internalType": "uint256",
                    "name": "tokenId",
                    "type": "uint256"
                }
            ],
            "name": "likeNFT",
            "outputs": [],
            "stateMutability": "nonpayable",
            "type": "function"
        },
        {
            "inputs": [
                {
                    "internalType": "string",
                    "name": "tokenURI",
                    "type": "string"
                },
                {
                    "internalType": "uint256",
                    "name": "price",
                    "type": "uint256"
                }
            ],
            "name": "mintToken",
            "outputs": [
                {
                    "internalType": "uint256",
                    "name": "",
                    "type": "uint256"
                }
            ],
            "stateMutability": "payable",
            "type": "function"
        },
        {
            "inputs": [],
            "name": "name",
            "outputs": [
                {
                    "internalType": "string",
                    "name": "",
                    "type": "string"
                }
            ],
            "stateMutability": "view",
            "type": "function"
        },
        {
            "inputs": [
                {
                    "internalType": "uint256",
                    "name": "tokenId",
                    "type": "uint256"
                }
            ],
            "name": "ownerOf",
            "outputs": [
                {
                    "internalType": "address",
                    "name": "",
                    "type": "address"
                }
            ],
            "stateMutability": "view",
            "type": "function"
        },
        {
            "inputs": [
                {
                    "internalType": "address",
                    "name": "from",
                    "type": "address"
                },
                {
                    "internalType": "address",
                    "name": "to",
                    "type": "address"
                },
                {
                    "internalType": "uint256",
                    "name": "tokenId",
                    "type": "uint256"
                }
            ],
            "name": "safeTransferFrom",
            "outputs": [],
            "stateMutability": "nonpayable",
            "type": "function"
        },
        {
            "inputs": [
                {
                    "internalType": "address",
                    "name": "from",
                    "type": "address"
                },
                {
                    "internalType": "address",
                    "name": "to",
                    "type": "address"
                },
                {
                    "internalType": "uint256",
                    "name": "tokenId",
                    "type": "uint256"
                },
                {
                    "internalType": "bytes",
                    "name": "data",
                    "type": "bytes"
                }
            ],
            "name": "safeTransferFrom",
            "outputs": [],
            "stateMutability": "nonpayable",
            "type": "function"
        },
        {
            "inputs": [
                {
                    "internalType": "address",
                    "name": "operator",
                    "type": "address"
                },
                {
                    "internalType": "bool",
                    "name": "approved",
                    "type": "bool"
                }
            ],
            "name": "setApprovalForAll",
            "outputs": [],
            "stateMutability": "nonpayable",
            "type": "function"
        },
        {
            "inputs": [
                {
                    "internalType": "bytes4",
                    "name": "interfaceId",
                    "type": "bytes4"
                }
            ],
            "name": "supportsInterface",
            "outputs": [
                {
                    "internalType": "bool",
                    "name": "",
                    "type": "bool"
                }
            ],
            "stateMutability": "view",
            "type": "function"
        },
        {
            "inputs": [],
            "name": "symbol",
            "outputs": [
                {
                    "internalType": "string",
                    "name": "",
                    "type": "string"
                }
            ],
            "stateMutability": "view",
            "type": "function"
        },
        {
            "inputs": [
                {
                    "internalType": "uint256",
                    "name": "tokenId",
                    "type": "uint256"
                }
            ],
            "name": "tokenURI",
            "outputs": [
                {
                    "internalType": "string",
                    "name": "",
                    "type": "string"
                }
            ],
            "stateMutability": "view",
            "type": "function"
        },
        {
            "inputs": [
                {
                    "internalType": "address",
                    "name": "from",
                    "type": "address"
                },
                {
                    "internalType": "address",
                    "name": "to",
                    "type": "address"
                },
                {
                    "internalType": "uint256",
                    "name": "tokenId",
                    "type": "uint256"
                }
            ],
            "name": "transferFrom",
            "outputs": [],
            "stateMutability": "nonpayable",
            "type": "function"
        }
    ],
    "bytecode": "0x60806040526608e1bc9bf04000600b553480156200001c57600080fd5b506040518060400160405280600f81526020017f54657374204e4654204d61726b657400000000000000000000000000000000008152506040518060400160405280600381526020017f544e4d000000000000000000000000000000000000000000000000000000000081525081600090816200009a919062000378565b508060019081620000ac919062000378565b505050600160078190555033600a60006101000a81548173ffffffffffffffffffffffffffffffffffffffff021916908373ffffffffffffffffffffffffffffffffffffffff1602179055506200045f565b600081519050919050565b7f4e487b7100000000000000000000000000000000000000000000000000000000600052604160045260246000fd5b7f4e487b7100000000000000000000000000000000000000000000000000000000600052602260045260246000fd5b600060028204905060018216806200018057607f821691505b60208210810362000196576200019562000138565b5b50919050565b60008190508160005260206000209050919050565b60006020601f8301049050919050565b600082821b905092915050565b600060088302620002007fffffffffffffffffffffffffffffffffffffffffffffffffffffffffffffffff82620001c1565b6200020c8683620001c1565b95508019841693508086168417925050509392505050565b6000819050919050565b6000819050919050565b600062000259620002536200024d8462000224565b6200022e565b62000224565b9050919050565b6000819050919050565b620002758362000238565b6200028d620002848262000260565b848454620001ce565b825550505050565b600090565b620002a462000295565b620002b18184846200026a565b505050565b5b81811015620002d957620002cd6000826200029a565b600181019050620002b7565b5050565b601f8211156200032857620002f2816200019c565b620002fd84620001b1565b810160208510156200030d578190505b620003256200031c85620001b1565b830182620002b6565b50505b505050565b600082821c905092915050565b60006200034d600019846008026200032d565b1980831691505092915050565b60006200036883836200033a565b9150826002028217905092915050565b6200038382620000fe565b67ffffffffffffffff8111156200039f576200039e62000109565b5b620003ab825462000167565b620003b8828285620002dd565b600060209050601f831160018114620003f05760008415620003db578287015190505b620003e785826200035a565b86555062000457565b601f19841662000400866200019c565b60005b828110156200042a5784890151825560018201915060208501945060208101905062000403565b868310156200044a578489015162000446601f8916826200033a565b8355505b6001600288020188555050505b505050505050565b613bae806200046f6000396000f3fe6080604052600436106101095760003560e01c806370a0823111610095578063be9af53611610064578063be9af5361461037b578063c046372c14610397578063c87b56dd146103c7578063da472a0f14610404578063e985e9c51461042d57610109565b806370a08231146102c157806395d89b41146102fe578063a22cb46514610329578063b88d4fde1461035257610109565b80630f08efe0116100dc5780630f08efe0146101dc578063202e37401461020757806323b872dd1461023257806342842e0e1461025b5780636352211e1461028457610109565b806301ffc9a71461010e57806306fdde031461014b578063081812fc14610176578063095ea7b3146101b3575b600080fd5b34801561011a57600080fd5b5061013560048036038101906101309190612486565b61046a565b60405161014291906124ce565b60405180910390f35b34801561015757600080fd5b5061016061054c565b60405161016d9190612579565b60405180910390f35b34801561018257600080fd5b5061019d600480360381019061019891906125d1565b6105de565b6040516101aa919061263f565b60405180910390f35b3480156101bf57600080fd5b506101da60048036038101906101d59190612686565b610624565b005b3480156101e857600080fd5b506101f161073b565b6040516101fe919061282f565b60405180910390f35b34801561021357600080fd5b5061021c6109a1565b604051610229919061282f565b60405180910390f35b34801561023e57600080fd5b5061025960048036038101906102549190612851565b610c8b565b005b34801561026757600080fd5b50610282600480360381019061027d9190612851565b610ceb565b005b34801561029057600080fd5b506102ab60048036038101906102a691906125d1565b610d0b565b6040516102b8919061263f565b60405180910390f35b3480156102cd57600080fd5b506102e860048036038101906102e391906128a4565b610dbc565b6040516102f591906128e0565b60405180910390f35b34801561030a57600080fd5b50610313610e73565b6040516103209190612579565b60405180910390f35b34801561033557600080fd5b50610350600480360381019061034b9190612927565b610f05565b005b34801561035e57600080fd5b5061037960048036038101906103749190612a9c565b610f1b565b005b610395600480360381019061039091906125d1565b610f7d565b005b6103b160048036038101906103ac9190612bc0565b611149565b6040516103be91906128e0565b60405180910390f35b3480156103d357600080fd5b506103ee60048036038101906103e991906125d1565b611211565b6040516103fb9190612579565b60405180910390f35b34801561041057600080fd5b5061042b600480360381019061042691906125d1565b611323565b005b34801561043957600080fd5b50610454600480360381019061044f9190612c1c565b6114f3565b60405161046191906124ce565b60405180910390f35b60007f80ac58cd000000000000000000000000000000000000000000000000000000007bffffffffffffffffffffffffffffffffffffffffffffffffffffffff1916827bffffffffffffffffffffffffffffffffffffffffffffffffffffffff1916148061053557507f5b5e139f000000000000000000000000000000000000000000000000000000007bffffffffffffffffffffffffffffffffffffffffffffffffffffffff1916827bffffffffffffffffffffffffffffffffffffffffffffffffffffffff1916145b80610545575061054482611587565b5b9050919050565b60606000805461055b90612c8b565b80601f016020809104026020016040519081016040528092919081815260200182805461058790612c8b565b80156105d45780601f106105a9576101008083540402835291602001916105d4565b820191906000526020600020905b8154815290600101906020018083116105b757829003601f168201915b5050505050905090565b60006105e9826115f1565b6004600083815260200190815260200160002060009054906101000a900473ffffffffffffffffffffffffffffffffffffffff169050919050565b600061062f82610d0b565b90508073ffffffffffffffffffffffffffffffffffffffff168373ffffffffffffffffffffffffffffffffffffffff160361069f576040517f08c379a000000000000000000000000000000000000000000000000000000000815260040161069690612d2e565b60405180910390fd5b8073ffffffffffffffffffffffffffffffffffffffff166106be61163c565b73ffffffffffffffffffffffffffffffffffffffff1614806106ed57506106ec816106e761163c565b6114f3565b5b61072c576040517f08c379a000000000000000000000000000000000000000000000000000000000815260040161072390612dc0565b60405180910390fd5b6107368383611644565b505050565b6060600061074960086116fd565b9050600061075760096116fd565b61076160086116fd565b61076b9190612e0f565b90506000808267ffffffffffffffff81111561078a57610789612971565b5b6040519080825280602002602001820160405280156107c357816020015b6107b06123b6565b8152602001906001900390816107a85790505b50905060005b84811015610996573073ffffffffffffffffffffffffffffffffffffffff16600c60006001846107f99190612e43565b815260200190815260200160002060020160009054906101000a900473ffffffffffffffffffffffffffffffffffffffff1673ffffffffffffffffffffffffffffffffffffffff160361098357600c60006001836108579190612e43565b81526020019081526020016000206040518060c0016040529081600082015481526020016001820160009054906101000a900473ffffffffffffffffffffffffffffffffffffffff1673ffffffffffffffffffffffffffffffffffffffff1673ffffffffffffffffffffffffffffffffffffffff1681526020016002820160009054906101000a900473ffffffffffffffffffffffffffffffffffffffff1673ffffffffffffffffffffffffffffffffffffffff1673ffffffffffffffffffffffffffffffffffffffff168152602001600382015481526020016004820160009054906101000a900460ff1615151515815260200160058201548152505082848151811061096857610967612e77565b5b60200260200101819052506001836109809190612e43565b92505b808061098e90612ea6565b9150506107c9565b508094505050505090565b606060006109af60086116fd565b905060008060005b83811015610a57573373ffffffffffffffffffffffffffffffffffffffff16600c60006001846109e79190612e43565b815260200190815260200160002060020160009054906101000a900473ffffffffffffffffffffffffffffffffffffffff1673ffffffffffffffffffffffffffffffffffffffff1603610a4457600183610a419190612e43565b92505b8080610a4f90612ea6565b9150506109b7565b5060008267ffffffffffffffff811115610a7457610a73612971565b5b604051908082528060200260200182016040528015610aad57816020015b610a9a6123b6565b815260200190600190039081610a925790505b50905060005b84811015610c80573373ffffffffffffffffffffffffffffffffffffffff16600c6000600184610ae39190612e43565b815260200190815260200160002060020160009054906101000a900473ffffffffffffffffffffffffffffffffffffffff1673ffffffffffffffffffffffffffffffffffffffff1603610c6d57600c6000600183610b419190612e43565b81526020019081526020016000206040518060c0016040529081600082015481526020016001820160009054906101000a900473ffffffffffffffffffffffffffffffffffffffff1673ffffffffffffffffffffffffffffffffffffffff1673ffffffffffffffffffffffffffffffffffffffff1681526020016002820160009054906101000a900473ffffffffffffffffffffffffffffffffffffffff1673ffffffffffffffffffffffffffffffffffffffff1673ffffffffffffffffffffffffffffffffffffffff168152602001600382015481526020016004820160009054906101000a900460ff16151515158152602001600582015481525050828481518110610c5257610c51612e77565b5b6020026020010181905250600183610c6a9190612e43565b92505b8080610c7890612ea6565b915050610ab3565b508094505050505090565b610c9c610c9661163c565b8261170b565b610cdb576040517f08c379a0000000000000000000000000000000000000000000000000000000008152600401610cd290612f60565b60405180910390fd5b610ce68383836117a0565b505050565b610d0683838360405180602001604052806000815250610f1b565b505050565b6000806002600084815260200190815260200160002060009054906101000a900473ffffffffffffffffffffffffffffffffffffffff169050600073ffffffffffffffffffffffffffffffffffffffff168173ffffffffffffffffffffffffffffffffffffffff1603610db3576040517f08c379a0000000000000000000000000000000000000000000000000000000008152600401610daa90612fcc565b60405180910390fd5b80915050919050565b60008073ffffffffffffffffffffffffffffffffffffffff168273ffffffffffffffffffffffffffffffffffffffff1603610e2c576040517f08c379a0000000000000000000000000000000000000000000000000000000008152600401610e239061305e565b60405180910390fd5b600360008373ffffffffffffffffffffffffffffffffffffffff1673ffffffffffffffffffffffffffffffffffffffff168152602001908152602001600020549050919050565b606060018054610e8290612c8b565b80601f0160208091040260200160405190810160405280929190818152602001828054610eae90612c8b565b8015610efb5780601f10610ed057610100808354040283529160200191610efb565b820191906000526020600020905b815481529060010190602001808311610ede57829003601f168201915b5050505050905090565b610f17610f1061163c565b8383611a06565b5050565b610f2c610f2661163c565b8361170b565b610f6b576040517f08c379a0000000000000000000000000000000000000000000000000000000008152600401610f6290612f60565b60405180910390fd5b610f7784848484611b72565b50505050565b600260075403610fc2576040517f08c379a0000000000000000000000000000000000000000000000000000000008152600401610fb9906130ca565b60405180910390fd5b60026007819055506000600c6000838152602001908152602001600020600301549050803414611027576040517f08c379a000000000000000000000000000000000000000000000000000000000815260040161101e90613136565b60405180910390fd5b33600c600084815260200190815260200160002060020160006101000a81548173ffffffffffffffffffffffffffffffffffffffff021916908373ffffffffffffffffffffffffffffffffffffffff1602179055506001600c600084815260200190815260200160002060040160006101000a81548160ff0219169083151502179055506110b56009611bce565b6110c03033846117a0565b600c600083815260200190815260200160002060010160009054906101000a900473ffffffffffffffffffffffffffffffffffffffff1673ffffffffffffffffffffffffffffffffffffffff166108fc349081150290604051600060405180830381858888f1935050505015801561113c573d6000803e3d6000fd5b5050600160078190555050565b600080821161118d576040517f08c379a0000000000000000000000000000000000000000000000000000000008152600401611184906131a2565b60405180910390fd5b600b5434146111d1576040517f08c379a00000000000000000000000000000000000000000000000000000000081526004016111c890613234565b60405180910390fd5b6111db6008611bce565b60006111e760086116fd565b90506111f33382611be4565b6111fd8185611dbd565b6112078184611e2a565b8091505092915050565b606061121c826115f1565b600060066000848152602001908152602001600020805461123c90612c8b565b80601f016020809104026020016040519081016040528092919081815260200182805461126890612c8b565b80156112b55780601f1061128a576101008083540402835291602001916112b5565b820191906000526020600020905b81548152906001019060200180831161129857829003601f168201915b5050505050905060006112c6611fb7565b905060008151036112db57819250505061131e565b6000825111156113105780826040516020016112f8929190613290565b6040516020818303038152906040529250505061131e565b61131984611fce565b925050505b919050565b61132c81612036565b61136b576040517f08c379a000000000000000000000000000000000000000000000000000000000815260040161136290613300565b60405180910390fd5b600d600082815260200190815260200160002060003373ffffffffffffffffffffffffffffffffffffffff1673ffffffffffffffffffffffffffffffffffffffff16815260200190815260200160002060009054906101000a900460ff1615611409576040517f08c379a00000000000000000000000000000000000000000000000000000000081526004016114009061336c565b60405180910390fd5b6001600d600083815260200190815260200160002060003373ffffffffffffffffffffffffffffffffffffffff1673ffffffffffffffffffffffffffffffffffffffff16815260200190815260200160002060006101000a81548160ff0219169083151502179055506001600c600083815260200190815260200160002060050160008282546114999190612e43565b92505081905550807f1d47eaf7725d80821a04ffda9af45be7be1f39ed5ae6e6d309853e01fd95dc3e33600c6000858152602001908152602001600020600501546040516114e892919061338c565b60405180910390a250565b6000600560008473ffffffffffffffffffffffffffffffffffffffff1673ffffffffffffffffffffffffffffffffffffffff16815260200190815260200160002060008373ffffffffffffffffffffffffffffffffffffffff1673ffffffffffffffffffffffffffffffffffffffff16815260200190815260200160002060009054906101000a900460ff16905092915050565b60007f01ffc9a7000000000000000000000000000000000000000000000000000000007bffffffffffffffffffffffffffffffffffffffffffffffffffffffff1916827bffffffffffffffffffffffffffffffffffffffffffffffffffffffff1916149050919050565b6115fa81612036565b611639576040517f08c379a000000000000000000000000000000000000000000000000000000000815260040161163090612fcc565b60405180910390fd5b50565b600033905090565b816004600083815260200190815260200160002060006101000a81548173ffffffffffffffffffffffffffffffffffffffff021916908373ffffffffffffffffffffffffffffffffffffffff160217905550808273ffffffffffffffffffffffffffffffffffffffff166116b783610d0b565b73ffffffffffffffffffffffffffffffffffffffff167f8c5be1e5ebec7d5bd14f71427d1e84f3dd0314c0f7b2291e5b200ac8c7c3b92560405160405180910390a45050565b600081600001549050919050565b60008061171783610d0b565b90508073ffffffffffffffffffffffffffffffffffffffff168473ffffffffffffffffffffffffffffffffffffffff161480611759575061175881856114f3565b5b8061179757508373ffffffffffffffffffffffffffffffffffffffff1661177f846105de565b73ffffffffffffffffffffffffffffffffffffffff16145b91505092915050565b8273ffffffffffffffffffffffffffffffffffffffff166117c082610d0b565b73ffffffffffffffffffffffffffffffffffffffff1614611816576040517f08c379a000000000000000000000000000000000000000000000000000000000815260040161180d90613427565b60405180910390fd5b600073ffffffffffffffffffffffffffffffffffffffff168273ffffffffffffffffffffffffffffffffffffffff1603611885576040517f08c379a000000000000000000000000000000000000000000000000000000000815260040161187c906134b9565b60405180910390fd5b6118908383836120a2565b61189b600082611644565b6001600360008573ffffffffffffffffffffffffffffffffffffffff1673ffffffffffffffffffffffffffffffffffffffff16815260200190815260200160002060008282546118eb9190612e0f565b925050819055506001600360008473ffffffffffffffffffffffffffffffffffffffff1673ffffffffffffffffffffffffffffffffffffffff16815260200190815260200160002060008282546119429190612e43565b92505081905550816002600083815260200190815260200160002060006101000a81548173ffffffffffffffffffffffffffffffffffffffff021916908373ffffffffffffffffffffffffffffffffffffffff160217905550808273ffffffffffffffffffffffffffffffffffffffff168473ffffffffffffffffffffffffffffffffffffffff167fddf252ad1be2c89b69c2b068fc378daa952ba7f163c4a11628f55a4df523b3ef60405160405180910390a4611a018383836120a7565b505050565b8173ffffffffffffffffffffffffffffffffffffffff168373ffffffffffffffffffffffffffffffffffffffff1603611a74576040517f08c379a0000000000000000000000000000000000000000000000000000000008152600401611a6b90613525565b60405180910390fd5b80600560008573ffffffffffffffffffffffffffffffffffffffff1673ffffffffffffffffffffffffffffffffffffffff16815260200190815260200160002060008473ffffffffffffffffffffffffffffffffffffffff1673ffffffffffffffffffffffffffffffffffffffff16815260200190815260200160002060006101000a81548160ff0219169083151502179055508173ffffffffffffffffffffffffffffffffffffffff168373ffffffffffffffffffffffffffffffffffffffff167f17307eab39ab6107e8899845ad3d59bd9653f200f220920489ca2b5937696c3183604051611b6591906124ce565b60405180910390a3505050565b611b7d8484846117a0565b611b89848484846120ac565b611bc8576040517f08c379a0000000000000000000000000000000000000000000000000000000008152600401611bbf906135b7565b60405180910390fd5b50505050565b6001816000016000828254019250508190555050565b600073ffffffffffffffffffffffffffffffffffffffff168273ffffffffffffffffffffffffffffffffffffffff1603611c53576040517f08c379a0000000000000000000000000000000000000000000000000000000008152600401611c4a90613623565b60405180910390fd5b611c5c81612036565b15611c9c576040517f08c379a0000000000000000000000000000000000000000000000000000000008152600401611c939061368f565b60405180910390fd5b611ca8600083836120a2565b6001600360008473ffffffffffffffffffffffffffffffffffffffff1673ffffffffffffffffffffffffffffffffffffffff1681526020019081526020016000206000828254611cf89190612e43565b92505081905550816002600083815260200190815260200160002060006101000a81548173ffffffffffffffffffffffffffffffffffffffff021916908373ffffffffffffffffffffffffffffffffffffffff160217905550808273ffffffffffffffffffffffffffffffffffffffff16600073ffffffffffffffffffffffffffffffffffffffff167fddf252ad1be2c89b69c2b068fc378daa952ba7f163c4a11628f55a4df523b3ef60405160405180910390a4611db9600083836120a7565b5050565b611dc682612036565b611e05576040517f08c379a0000000000000000000000000000000000000000000000000000000008152600401611dfc90613721565b60405180910390fd5b80600660008481526020019081526020016000209081611e2591906138ed565b505050565b6040518060c001604052808381526020013373ffffffffffffffffffffffffffffffffffffffff1681526020013073ffffffffffffffffffffffffffffffffffffffff1681526020018281526020016000151581526020016000815250600c60008481526020019081526020016000206000820151816000015560208201518160010160006101000a81548173ffffffffffffffffffffffffffffffffffffffff021916908373ffffffffffffffffffffffffffffffffffffffff16021790555060408201518160020160006101000a81548173ffffffffffffffffffffffffffffffffffffffff021916908373ffffffffffffffffffffffffffffffffffffffff1602179055506060820151816003015560808201518160040160006101000a81548160ff02191690831515021790555060a08201518160050155905050611f743330846117a0565b817fb640004f1d14576d0c209e240cad0410e0d8c0c33a09375861fbadae2588a98d3330846000604051611fab94939291906139bf565b60405180910390a25050565b606060405180602001604052806000815250905090565b6060611fd9826115f1565b6000611fe3611fb7565b90506000815111612003576040518060200160405280600081525061202e565b8061200d84612233565b60405160200161201e929190613290565b6040516020818303038152906040525b915050919050565b60008073ffffffffffffffffffffffffffffffffffffffff166002600084815260200190815260200160002060009054906101000a900473ffffffffffffffffffffffffffffffffffffffff1673ffffffffffffffffffffffffffffffffffffffff1614159050919050565b505050565b505050565b60006120cd8473ffffffffffffffffffffffffffffffffffffffff16612393565b15612226578373ffffffffffffffffffffffffffffffffffffffff1663150b7a026120f661163c565b8786866040518563ffffffff1660e01b81526004016121189493929190613a59565b6020604051808303816000875af192505050801561215457506040513d601f19601f820116820180604052508101906121519190613aba565b60015b6121d6573d8060008114612184576040519150601f19603f3d011682016040523d82523d6000602084013e612189565b606091505b5060008151036121ce576040517f08c379a00000000000000000000000000000000000000000000000000000000081526004016121c5906135b7565b60405180910390fd5b805181602001fd5b63150b7a0260e01b7bffffffffffffffffffffffffffffffffffffffffffffffffffffffff1916817bffffffffffffffffffffffffffffffffffffffffffffffffffffffff19161491505061222b565b600190505b949350505050565b60606000820361227a576040518060400160405280600181526020017f3000000000000000000000000000000000000000000000000000000000000000815250905061238e565b600082905060005b600082146122ac57808061229590612ea6565b915050600a826122a59190613b16565b9150612282565b60008167ffffffffffffffff8111156122c8576122c7612971565b5b6040519080825280601f01601f1916602001820160405280156122fa5781602001600182028036833780820191505090505b5090505b60008514612387576001826123139190612e0f565b9150600a856123229190613b47565b603061232e9190612e43565b60f81b81838151811061234457612343612e77565b5b60200101907effffffffffffffffffffffffffffffffffffffffffffffffffffffffffffff1916908160001a905350600a856123809190613b16565b94506122fe565b8093505050505b919050565b6000808273ffffffffffffffffffffffffffffffffffffffff163b119050919050565b6040518060c0016040528060008152602001600073ffffffffffffffffffffffffffffffffffffffff168152602001600073ffffffffffffffffffffffffffffffffffffffff16815260200160008152602001600015158152602001600081525090565b6000604051905090565b600080fd5b600080fd5b60007fffffffff0000000000000000000000000000000000000000000000000000000082169050919050565b6124638161242e565b811461246e57600080fd5b50565b6000813590506124808161245a565b92915050565b60006020828403121561249c5761249b612424565b5b60006124aa84828501612471565b91505092915050565b60008115159050919050565b6124c8816124b3565b82525050565b60006020820190506124e360008301846124bf565b92915050565b600081519050919050565b600082825260208201905092915050565b60005b83811015612523578082015181840152602081019050612508565b60008484015250505050565b6000601f19601f8301169050919050565b600061254b826124e9565b61255581856124f4565b9350612565818560208601612505565b61256e8161252f565b840191505092915050565b600060208201905081810360008301526125938184612540565b905092915050565b6000819050919050565b6125ae8161259b565b81146125b957600080fd5b50565b6000813590506125cb816125a5565b92915050565b6000602082840312156125e7576125e6612424565b5b60006125f5848285016125bc565b91505092915050565b600073ffffffffffffffffffffffffffffffffffffffff82169050919050565b6000612629826125fe565b9050919050565b6126398161261e565b82525050565b60006020820190506126546000830184612630565b92915050565b6126638161261e565b811461266e57600080fd5b50565b6000813590506126808161265a565b92915050565b6000806040838503121561269d5761269c612424565b5b60006126ab85828601612671565b92505060206126bc858286016125bc565b9150509250929050565b600081519050919050565b600082825260208201905092915050565b6000819050602082019050919050565b6126fb8161259b565b82525050565b600061270c826125fe565b9050919050565b61271c81612701565b82525050565b61272b816124b3565b82525050565b60c08201600082015161274760008501826126f2565b50602082015161275a6020850182612713565b50604082015161276d6040850182612713565b50606082015161278060608501826126f2565b5060808201516127936080850182612722565b5060a08201516127a660a08501826126f2565b50505050565b60006127b88383612731565b60c08301905092915050565b6000602082019050919050565b60006127dc826126c6565b6127e681856126d1565b93506127f1836126e2565b8060005b8381101561282257815161280988826127ac565b9750612814836127c4565b9250506001810190506127f5565b5085935050505092915050565b6000602082019050818103600083015261284981846127d1565b905092915050565b60008060006060848603121561286a57612869612424565b5b600061287886828701612671565b935050602061288986828701612671565b925050604061289a868287016125bc565b9150509250925092565b6000602082840312156128ba576128b9612424565b5b60006128c884828501612671565b91505092915050565b6128da8161259b565b82525050565b60006020820190506128f560008301846128d1565b92915050565b612904816124b3565b811461290f57600080fd5b50565b600081359050612921816128fb565b92915050565b6000806040838503121561293e5761293d612424565b5b600061294c85828601612671565b925050602061295d85828601612912565b9150509250929050565b600080fd5b600080fd5b7f4e487b7100000000000000000000000000000000000000000000000000000000600052604160045260246000fd5b6129a98261252f565b810181811067ffffffffffffffff821117156129c8576129c7612971565b5b80604052505050565b60006129db61241a565b90506129e782826129a0565b919050565b600067ffffffffffffffff821115612a0757612a06612971565b5b612a108261252f565b9050602081019050919050565b82818337600083830152505050565b6000612a3f612a3a846129ec565b6129d1565b905082815260208101848484011115612a5b57612a5a61296c565b5b612a66848285612a1d565b509392505050565b600082601f830112612a8357612a82612967565b5b8135612a93848260208601612a2c565b91505092915050565b60008060008060808587031215612ab657612ab5612424565b5b6000612ac487828801612671565b9450506020612ad587828801612671565b9350506040612ae6878288016125bc565b925050606085013567ffffffffffffffff811115612b0757612b06612429565b5b612b1387828801612a6e565b91505092959194509250565b600067ffffffffffffffff821115612b3a57612b39612971565b5b612b438261252f565b9050602081019050919050565b6000612b63612b5e84612b1f565b6129d1565b905082815260208101848484011115612b7f57612b7e61296c565b5b612b8a848285612a1d565b509392505050565b600082601f830112612ba757612ba6612967565b5b8135612bb7848260208601612b50565b91505092915050565b60008060408385031215612bd757612bd6612424565b5b600083013567ffffffffffffffff811115612bf557612bf4612429565b5b612c0185828601612b92565b9250506020612c12858286016125bc565b9150509250929050565b60008060408385031215612c3357612c32612424565b5b6000612c4185828601612671565b9250506020612c5285828601612671565b9150509250929050565b7f4e487b7100000000000000000000000000000000000000000000000000000000600052602260045260246000fd5b60006002820490506001821680612ca357607f821691505b602082108103612cb657612cb5612c5c565b5b50919050565b7f4552433732313a20617070726f76616c20746f2063757272656e74206f776e6560008201527f7200000000000000000000000000000000000000000000000000000000000000602082015250565b6000612d186021836124f4565b9150612d2382612cbc565b604082019050919050565b60006020820190508181036000830152612d4781612d0b565b9050919050565b7f4552433732313a20617070726f76652063616c6c6572206973206e6f7420746f60008201527f6b656e206f776e6572206e6f7220617070726f76656420666f7220616c6c0000602082015250565b6000612daa603e836124f4565b9150612db582612d4e565b604082019050919050565b60006020820190508181036000830152612dd981612d9d565b9050919050565b7f4e487b7100000000000000000000000000000000000000000000000000000000600052601160045260246000fd5b6000612e1a8261259b565b9150612e258361259b565b9250828203905081811115612e3d57612e3c612de0565b5b92915050565b6000612e4e8261259b565b9150612e598361259b565b9250828201905080821115612e7157612e70612de0565b5b92915050565b7f4e487b7100000000000000000000000000000000000000000000000000000000600052603260045260246000fd5b6000612eb18261259b565b91507fffffffffffffffffffffffffffffffffffffffffffffffffffffffffffffffff8203612ee357612ee2612de0565b5b600182019050919050565b7f4552433732313a2063616c6c6572206973206e6f7420746f6b656e206f776e6560008201527f72206e6f7220617070726f766564000000000000000000000000000000000000602082015250565b6000612f4a602e836124f4565b9150612f5582612eee565b604082019050919050565b60006020820190508181036000830152612f7981612f3d565b9050919050565b7f4552433732313a20696e76616c696420746f6b656e2049440000000000000000600082015250565b6000612fb66018836124f4565b9150612fc182612f80565b602082019050919050565b60006020820190508181036000830152612fe581612fa9565b9050919050565b7f4552433732313a2061646472657373207a65726f206973206e6f74206120766160008201527f6c6964206f776e65720000000000000000000000000000000000000000000000602082015250565b60006130486029836124f4565b915061305382612fec565b604082019050919050565b600060208201905081810360008301526130778161303b565b9050919050565b7f5265656e7472616e637947756172643a207265656e7472616e742063616c6c00600082015250565b60006130b4601f836124f4565b91506130bf8261307e565b602082019050919050565b600060208201905081810360008301526130e3816130a7565b9050919050565b7f506c65617365207375626d6974207468652061736b696e672070726963650000600082015250565b6000613120601e836124f4565b915061312b826130ea565b602082019050919050565b6000602082019050818103600083015261314f81613113565b9050919050565b7f5072696365206d757374206265206174206c6561737420312077656900000000600082015250565b600061318c601c836124f4565b915061319782613156565b602082019050919050565b600060208201905081810360008301526131bb8161317f565b9050919050565b7f5072696365206d75737420626520657175616c20746f206c697374696e67207060008201527f7269636500000000000000000000000000000000000000000000000000000000602082015250565b600061321e6024836124f4565b9150613229826131c2565b604082019050919050565b6000602082019050818103600083015261324d81613211565b9050919050565b600081905092915050565b600061326a826124e9565b6132748185613254565b9350613284818560208601612505565b80840191505092915050565b600061329c828561325f565b91506132a8828461325f565b91508190509392505050565b7f546f6b656e20646f6573206e6f74206578697374000000000000000000000000600082015250565b60006132ea6014836124f4565b91506132f5826132b4565b602082019050919050565b60006020820190508181036000830152613319816132dd565b9050919050565b7f416c7265616479206c696b65642074686973204e465400000000000000000000600082015250565b60006133566016836124f4565b915061336182613320565b602082019050919050565b6000602082019050818103600083015261338581613349565b9050919050565b60006040820190506133a16000830185612630565b6133ae60208301846128d1565b9392505050565b7f4552433732313a207472616e736665722066726f6d20696e636f72726563742060008201527f6f776e6572000000000000000000000000000000000000000000000000000000602082015250565b60006134116025836124f4565b915061341c826133b5565b604082019050919050565b6000602082019050818103600083015261344081613404565b9050919050565b7f4552433732313a207472616e7366657220746f20746865207a65726f2061646460008201527f7265737300000000000000000000000000000000000000000000000000000000602082015250565b60006134a36024836124f4565b91506134ae82613447565b604082019050919050565b600060208201905081810360008301526134d281613496565b9050919050565b7f4552433732313a20617070726f766520746f2063616c6c657200000000000000600082015250565b600061350f6019836124f4565b915061351a826134d9565b602082019050919050565b6000602082019050818103600083015261353e81613502565b9050919050565b7f4552433732313a207472616e7366657220746f206e6f6e20455243373231526560008201527f63656976657220696d706c656d656e7465720000000000000000000000000000602082015250565b60006135a16032836124f4565b91506135ac82613545565b604082019050919050565b600060208201905081810360008301526135d081613594565b9050919050565b7f4552433732313a206d696e7420746f20746865207a65726f2061646472657373600082015250565b600061360d6020836124f4565b9150613618826135d7565b602082019050919050565b6000602082019050818103600083015261363c81613600565b9050919050565b7f4552433732313a20746f6b656e20616c7265616479206d696e74656400000000600082015250565b6000613679601c836124f4565b915061368482613643565b602082019050919050565b600060208201905081810360008301526136a88161366c565b9050919050565b7f45524337323155524953746f726167653a2055524920736574206f66206e6f6e60008201527f6578697374656e7420746f6b656e000000000000000000000000000000000000602082015250565b600061370b602e836124f4565b9150613716826136af565b604082019050919050565b6000602082019050818103600083015261373a816136fe565b9050919050565b60008190508160005260206000209050919050565b60006020601f8301049050919050565b600082821b905092915050565b6000600883026137a37fffffffffffffffffffffffffffffffffffffffffffffffffffffffffffffffff82613766565b6137ad8683613766565b95508019841693508086168417925050509392505050565b6000819050919050565b60006137ea6137e56137e08461259b565b6137c5565b61259b565b9050919050565b6000819050919050565b613804836137cf565b613818613810826137f1565b848454613773565b825550505050565b600090565b61382d613820565b6138388184846137fb565b505050565b5b8181101561385c57613851600082613825565b60018101905061383e565b5050565b601f8211156138a15761387281613741565b61387b84613756565b8101602085101561388a578190505b61389e61389685613756565b83018261383d565b50505b505050565b600082821c905092915050565b60006138c4600019846008026138a6565b1980831691505092915050565b60006138dd83836138b3565b9150826002028217905092915050565b6138f6826124e9565b67ffffffffffffffff81111561390f5761390e612971565b5b6139198254612c8b565b613924828285613860565b600060209050601f8311600181146139575760008415613945578287015190505b61394f85826138d1565b8655506139b7565b601f19841661396586613741565b60005b8281101561398d57848901518255600182019150602085019450602081019050613968565b868310156139aa57848901516139a6601f8916826138b3565b8355505b6001600288020188555050505b505050505050565b60006080820190506139d46000830187612630565b6139e16020830186612630565b6139ee60408301856128d1565b6139fb60608301846124bf565b95945050505050565b600081519050919050565b600082825260208201905092915050565b6000613a2b82613a04565b613a358185613a0f565b9350613a45818560208601612505565b613a4e8161252f565b840191505092915050565b6000608082019050613a6e6000830187612630565b613a7b6020830186612630565b613a8860408301856128d1565b8181036060830152613a9a8184613a20565b905095945050505050565b600081519050613ab48161245a565b92915050565b600060208284031215613ad057613acf612424565b5b6000613ade84828501613aa5565b91505092915050565b7f4e487b7100000000000000000000000000000000000000000000000000000000600052601260045260246000fd5b6000613b218261259b565b9150613b2c8361259b565b925082613b3c57613b3b613ae7565b5b828204905092915050565b6000613b528261259b565b9150613b5d8361259b565b925082613b6d57613b6c613ae7565b5b82820690509291505056fea2646970667358221220417ff3c4968426c9a7c94f79bead4d00aec97075a5591e20e1daf8c0084da47964736f6c63430008110033",
    "linkReferences": {},
    "deployedLinkReferences": {}
}